:020000040800F2
:1000000010150020CD010008A904000855040008BF
:10001000A504000831030008DF13000800000000F9
:100020000000000000000000000000006111000856
:1000300035030008000000005B020008751200088C
:10004000E7010008E7010008E7010008E7010008F0
:10005000E7010008E7010008E7010008E7010008E0
:10006000E7010008E7010008E7010008E7010008D0
:10007000E7010008E7010008E7010008E7010008C0
:10008000E7010008E7010008E7010008E7010008B0
:10009000E7010008E7010008E7010008E7010008A0
:1000A000E7010008E7010008E7010008E701000890
:1000B000E7010008E7010008E7010008E701000880
:1000C000E7010008E7010008E7010008E701000870
:1000D000E7010008F1120008E7010008E701000845
:1000E000E7010008E7010008E7010008E701000850
:1000F000E7010008E7010008E7010008E701000840
:10010000E7010008E7010008E7010008E70100082F
:10011000E7010008E7010008E7010008E70100081F
:10012000E7010008E7010008E7010008E70100080F
:1001300000F002F800F03AF80AA090E8000C8244BF
:100140008344AAF10107DA4501D100F02FF8AFF29C
:10015000090EBAE80F0013F0010F18BFFB1A43F0A5
:10016000010318477015000090150000103A24BFD5
:1001700078C878C1FAD8520724BF30C830C144BF0C
:1001800004680C607047000000230024002500264E
:10019000103A28BF78C1FBD8520728BF30C148BFEA
:1001A0000B6070471FB51FBD10B510BD00F08DF876
:1001B0001146FFF7F7FF01F0D1F900F0ABF803B4F7
:1001C000FFF7F2FF03BC01F00CF90000094880477B
:1001D00009480047FEE7FEE7FEE7FEE7FEE7FEE729
:1001E000FEE7FEE7FEE7FEE704480549054A064B41
:1001F000704700009112000831010008100F002024
:10020000101500201011002010110020EFF31080B5
:1002100072B6704780F310887047204C204D2560DF
:100220004FF0000484F309881E4C4FF0010525703F
:100230001D4C4FF08055256062B6FEE730B41A4C75
:100240004FF08055256030BC704730B4164C4FF0ED
:100250008055256030BC704700BF72B6EFF309804F
:1002600028B1203880E8F00F10490968086000B50F
:100270000F4880475DF804EB0E480F490A7802707A
:100280000A480E490A680260106890E8F00F2030B2
:1002900080F309884EF0040E62B6704720ED00E04E
:1002A0000000FFFF3200002004ED00E038000020D5
:1002B000310A00082700002028000020400000200C
:1002C00070477047704770477047754600F02CF8CC
:1002D000AE4605006946534620F00700854618B033
:1002E00020B5FFF781FFBDE820404FF000064FF03A
:1002F00000074FF000084FF0000B21F00701AC465B
:10030000ACE8C009ACE8C009ACE8C009ACE8C00979
:100310008D46704710B50446AFF300802046BDE817
:100320001040FFF74CBF000000487047B00E00209F
:1003300000BFFEE770472DE9F04102460025002688
:10034000002000230024002791F803C00CF00F05C3
:1003500091F803C00CF0100CBCF1000F03D091F821
:1003600002C04CEA050591F800C0BCF1000F31D085
:10037000146800202BE04FF0010C0CFA00F3B1F8E8
:1003800000C00CEA03069E4220D183004FF00F0C00
:100390000CFA03F7BC4305FA03FC4CEA040491F899
:1003A00003C0BCF1280F06D14FF0010C0CFA00FC81
:1003B000C2F814C00AE091F803C0BCF1480F05D19F
:1003C0004FF0010C0CFA00FCC2F810C0401C0828C9
:1003D000D1D31460B1F800C0BCF1FF0F34DD546814
:1003E00000202EE000F1080C4FF0010808FA0CF391
:1003F000B1F800C00CEA03069E4221D183004FF001
:100400000F0C0CFA03F7BC4305FA03FC4CEA040496
:1004100091F803C0BCF1280F05D100F1080C08FACF
:100420000CF8C2F8148091F803C0BCF1480F07D152
:1004300000F1080C4FF0010808FA0CF8C2F810801F
:10044000401C0828CED35460BDE8F081416170475C
:100450000161704700BFFEE708B50121482000F0A8
:100460006FFE2020ADF8000010208DF8030003205F
:100470008DF8020069460948FFF75DFF2021074813
:10048000FFF7E6FF2020ADF8000069460448FFF7BB
:1004900052FF20210248FFF7DBFF08BD000C01409E
:1004A0000018014000BFFEE7704700000249014309
:1004B000024A1160704700000000FA050CED00E0F0
:1004C00010B500F013F800F0BFFB00F0E7FB00F000
:1004D00007FC00F08FFB00F061FB00F09BFC00F0DC
:1004E0003FFC00F065FC00F002F810BD704770475B
:1004F00006480078012808D105480078FF2804D272
:1005000003480078401C0249087070473200002000
:100510002500002010B500241A480078012830D1A9
:10052000FFF774FE04461848007820B1164800789A
:10053000401E1549087014480078F8B9134800782F
:10054000E0B900F0C9FC12481249097850F82100BE
:10055000114908600F4800781049097888420DD089
:100560000D480068806B401C0B49096888630C4883
:100570000068401C0A490860FFF767FE2046FFF745
:1005800049FE10BD3200002025000020260000207A
:1005900048060020280000204000002027000020FE
:1005A0000C00002010B500240B480078012811D160
:1005B000FFF72CFE04460948007840B90848007847
:1005C000FF2804D206480078401C054908702046E0
:1005D000FFF720FE10BD00003200002025000020A3
:1005E0002600002010B5002413480078012821D1EE
:1005F000FFF70CFE044611480078C0B10F480078A0
:10060000401E0E4908700846007860B90C48007812
:1006100028B92046FFF7FEFD00F024FC0AE0204642
:10062000FFF7F8FD06E02046FFF7F4FD02E0204664
:10063000FFF7F0FD10BD0000320000202600002072
:100640002500002010B50B48007890B900F044FC5C
:10065000094800780949087009480749097850F89D
:100660002100084908600846006807490860FFF74C
:10067000D4FD10BD320000202800002027000020FB
:10068000480600204000002038000020704700008D
:100690002DE9FE4F06460F4690461C464FF00009D6
:1006A000FFF7B4FD81461F48007828B14846FFF7A0
:1006B000B1FD3C20BDE8FE8F1B4850F8240060BB14
:1006C0000120194941F824004846FFF7A3FD002303
:1006D00042463946304600F009F982460020009033
:1006E00001900346024651460290204600F00AFC63
:1006F000054635B90D48007801280CD100F0B2FB51
:1007000009E0FFF783FD81460020074941F82400F6
:100710004846FFF77FFD2846CCE74846FFF77AFDBD
:100720002820C7E7250000204806002032000020CE
:100730002DE9F04F85B081468A4693461C46DDE997
:100740000F78129D00200390FFF760FD039023486F
:10075000007830B10398FFF75DFD3C2005B0BDE89F
:10076000F08F1F4850F8240088BB01201C4941F835
:1007700024000398FFF74EFD2A464146384600F014
:10078000D1FC2B465A465146484600F0AFF804903B
:100790001198CDE9008002953A4620460E9B0499B7
:1007A00000F0B0FB064636B90E48007801280CD19F
:1007B00000F058FB09E0FFF729FD039000200849ED
:1007C00041F824000398FFF725FD3046C6E7FFE710
:1007D0000398FFF71FFD2820C0E700002500002038
:1007E0004806002032000020704770472DE9F04194
:1007F00006460F4614464FF000081548007818B119
:1008000012202070BDE8F081FFF700FD8046FF2E2A
:1008100003D11048006890F832600F4850F8265015
:100820002DB94046FFF7F6FC43202070EAE7012D82
:1008300005D14046FFF7EEFC43202070E2E7EF646D
:100840004046FFF7E7FC0020207000BFDAE7000019
:1008500025000020380000204806002070470000D6
:100860002DE9F04707460D464FF0000A00202860AA
:100870006860FFF7CBFC8246FF2F03D11948006860
:1008800090F83270184850F827402CB95046FFF7BE
:10089000C1FC4320BDE8F087012C04D15046FFF78E
:1008A000B9FC4320F6E7207C00F0010020B9504657
:1008B000FFF7B0FC4520EDE70026D4F80C90D4F803
:1008C00008805046FFF7A6FC00E0761C58F8041B91
:1008D0000029FAD0B0002860A9EB0600800068600B
:1008E0000020D7E7380000204806002070B50446F5
:1008F00010464FF080750560051F28462C606FF08C
:100900000106051F28462E604FF01236051F2846A7
:100910002E604FF00336051F28462E604FF002363A
:10092000051F28462E607610051F28462E60051FDD
:10093000284629604FF01136051F28462E604FF0DB
:100940001036051F28462E604FF00936051F284631
:100950002E604FF00836051F28462E604FF00736F0
:10096000051F28462E604FF00636051F28462E60CC
:100970004FF00536051F28462E604FF00436051F40
:1009800028462E6070BD00002DE9F04105464FF06D
:100990000008FFF73BFC8046FF2D05D1204800688A
:1009A00090F83250012608E01D48006890F83200A7
:1009B000A84201D1012600E000261A4850F825403F
:1009C0002CB94046FFF726FC4820BDE8F081012CF9
:1009D00004D14046FFF71EFC4320F6E794F834703C
:1009E0001148C05D94F8351088430F49C855084632
:1009F000C05D30B994F836100C48007888430B4934
:100A0000087094F8300040F0080084F83000404648
:100A1000FFF700FC012E01D100F024FA0020D4E7FA
:100A200038000020480600202A000020290000206D
:100A30007047000070B5054600261748007800B1E1
:100A400070BD1648007800B1FAE71DB3FFF7DEFB72
:100A500006461348006890F834401248005D10497B
:100A6000096891F8351088430E4908550846005D1D
:100A700040B90B48006890F836100B48007888435E
:100A80000949087006480068C5623046FFF7C2FB96
:100A900000F0E8F900BFD3E7250000202600002081
:100AA000380000202A0000202900002070B5002610
:100AB00000F072F8FFF7AAFB064631480068401CB8
:100AC0002F4908603046FFF7A5FB2E480078012823
:100AD00053D12D48007820B1012804D0022809D133
:100AE00003E001250BE0002509E00125012026494E
:100AF000087004E0012500202349087000BF00BFF2
:100B000005B970BD2148046833E0FFF77FFB064656
:100B1000E06A50B3E06A401EE062E06A28BB94F8E5
:100B2000300000F0370040B114F8300F00F0C8007A
:100B3000207001206070303C02E0002084F8310019
:100B400094F8300000F0080078B93434A0781049E7
:100B5000097808430E49087020780E49085C6178CE
:100B6000084314F834190B4A505464693046FFF7AF
:100B700051FB94F832003F28C7D100BFC1E7000005
:100B800050000020320000204800002044000020D7
:100B9000290000202A000020704700002DE9F041C4
:100BA0005021114800F02CF900250DE0681C86B298
:100BB0000D4800EB051400EB06170020207067605D
:100BC0000AA0E060681C85B2042DEFD3064800EB54
:100BD000051400202070606004A0E0600248044911
:100BE0000860BDE8F0810000F80100203F0000002F
:100BF0001400002070B5C821114800F001F900234D
:100C00000FE0581C85B203EB83000D4901EB800413
:100C100005EB850001EB8006002020706660581C03
:100C200083B2092BEDD303EB8300054901EB80046C
:100C300000202070606008460249086070BD000016
:100C4000300100201000002000200A4908600A49F5
:100C500008700A4908700A4908700A4908700A4968
:100C600008600A4908600A4908600A4908600A4998
:100C7000087070475000002025000020260000204A
:100C800033000020320000200C000020340000203F
:100C9000200000201C0000202400002000210A4A1F
:100CA0001170002004E00021084A1154411CC8B210
:100CB0000828F8D30021064A1170064A1170064A26
:100CC0001160064A11607047290000202A000020A8
:100CD00027000020280000204000002038000020CD
:100CE00070B54FF47C71194800F08AF84FF48071A8
:100CF000174800F085F8002413E0601CC5B2C4EB6F
:100D0000C40000EB4000114901EB8003C5EBC500B6
:100D100000EB400001EB80065E610EA0D864601C11
:100D2000C4B20B2CE9D3C4EBC40000EB400007496C
:100D300001EB80030020586106A0D864002006491A
:100D4000086002480549086070BD0000480700209F
:100D5000480600203F000000440000203C00002026
:100D600000B587B00320002180220A4BCDE9013273
:100D7000CDE903104FF6FF703F23074A0090074864
:100D8000FFF7D6FC06AA06A13F20FFF72FFD07B00C
:100D900000BD00004804002044060020391000086F
:100DA00075432F4F532D49492049646C650000005D
:100DB00000B587B00320002180220A4BCDE9013223
:100DC000CDE903104FF6FE703E23074A0090074816
:100DD000FFF7AEFC06AA06A13E20FFF707FD07B00D
:100DE00000BD0000480200204404002061100008FB
:100DF00075432F4F532D49492053746174000000EF
:100E000004E0002200F8012B4A1E91B20029F8D11B
:100E1000704700002DE9F04178211048FFF7F0FFFE
:100E200000240DE0601C86B204EB44000B4901EB8A
:100E3000C00506EB460001EBC0072F60601C84B2C2
:100E4000042CEFD304EB4400044901EBC00500205F
:100E50002860084602490860BDE8F081380B002090
:100E60004C00002010B50024FFF7D0F904461348C9
:100E70000078F8B912480078E0B900F02DF8114870
:100E80001149097850F82100104908600E4800788F
:100E90000F49097888420DD00C480068806B401CCF
:100EA0000A49096888630B480068401C09490860C2
:100EB000FFF7C4F92046FFF7ADF910BD250000206B
:100EC00026000020480600202800002040000020C6
:100ED000270000200C0000200649074A1278885C91
:100EE0000649095C034A515C01EBC001044A1170D8
:100EF00070470000D4150008290000202A000020B7
:100F0000280000202DE9F84F05460F4690469946E7
:100F1000DDE90AAB00200090FFF778F900903F4828
:100F20000468002C74D0183454F8040C3B49086051
:100F30000098FFF76FF944F8187CA576002020761A
:100F40006076606144F814BC44F80CAC44F8108C32
:100F50000C9824F8080C24F8069C0020E077E81090
:100F6000207705F00700E076217F01208840A077F8
:100F7000E17E01208840607700206060E060A06032
:100F80002062A0626062E062206325A06063183C7A
:100F9000002606E0002104F1500040F82610701CE5
:100FA000C6B2002EF6D02046FFF770FB2046FFF7B2
:100FB0001BFCFFF72BF900901A4840F825401A480F
:100FC000006860610020A0611748006810B11648F1
:100FD00000688461144804603434A07813490978A7
:100FE00008431249087020781149085C6178084369
:100FF00014F834190E4A50540E480078401C0D491C
:1010000008700098FFF706F90020BDE8F88FFFE7A9
:101010000098FFF7FFF84220F7E700003C000020AF
:101020003F00000048060020440000202900002066
:101030002A00002033000020002400BF00BFFFF77B
:10104000E5F8044605480068401C0449086020464D
:10105000FFF7E0F8FFF7C9FBF1E7000034000020DC
:10106000002400BF02E02820FFF7E4FC19480078C4
:101070000028F8D0184800686421B0FBF1F0164948
:1010800008600846006828B9002014490870FF204D
:10109000FFF77AFC00BFFFF7B9F804461048006874
:1010A0001049086000200E4908602046FFF7B2F89A
:1010B0000C48006808490968B0FBF1F0C0F1640011
:1010C00006490870FFF7CAFB00F00EF81420FFF77E
:1010D000B1FCE0E7240000201C00002018000020E4
:1010E00034000020200000207CB5002514E0694673
:1010F0002846FFF7B5FB064666B9094850F8254073
:1011000044B1012C06D0D4E9020100EB81006064F7
:101110000198A064681CC5B23F2DE8D97CBD0000D1
:101120004806002002F0010343B102F002032BB194
:1011300002E0491E002308C00029FAD170470000D0
:1011400029B1064A92690243044B9A6104E0034ABA
:1011500092698243014B9A6170470000001002407F
:10116000704710B500F002F810BD00000CB500206B
:10117000019000903348006840F4803031490860A5
:1011800000BF3048006800F4003000900198401C17
:101190000190009818B90198B0F5A06FF1D12948D5
:1011A000006800F4003010B10120009001E0002040
:1011B00000900098012843D12348006840F01000B7
:1011C000214908600846006820F0030008600846CE
:1011D000006840F0020008601A48406819494860F9
:1011E0000846406848600846406840F480604860AF
:1011F0000846406820F47C1048600846406840F487
:10120000E81048600846006840F08070086000BF41
:101210000C48006800F000700028F9D009484068C8
:1012200020F00300074948600846406840F002008B
:10123000486000BF0348406800F00C000828F9D15E
:101240000CBD00000010024000200240042808D11C
:101250004FF0E021096941F004014FF0E0221161F3
:1012600007E04FF0E021096921F004014FF0E0228E
:101270001161704710B505480078012805D1FFF7C6
:1012800037F9FFF713FCFFF745F910BD32000020D6
:1012900010B51348006840F0010011490860084685
:1012A0004068104908400E494860084600680E49E9
:1012B00008400B4908600846006820F48020086058
:1012C0000846406820F4FE0048604FF41F00886024
:1012D000FFF747FF4FF000600449086010BD0000B1
:1012E000001002400000FFF8FFFFF6FE08ED00E0EE
:1012F00010B5FFF7FDF840F225511E4800F040F808
:1013000010B31C4800F066F8C4B21B48008800F413
:101310000040C8B91848008800F4804060B10A2C29
:1013200003D000201449088020E01348008840F4CE
:1013300000401149088019E00D2C06D10E480088A4
:1013400040F480400C49088010E00B480088C0F34E
:101350000D000A490C5408480088401C06490880C2
:1013600008460088C72801DD00200880FFF7D2F872
:1013700010BD000000380140080000206800002077
:1013800070B50246002400230025002040F66A16AE
:10139000B14200D100BFC1F3421501F01F03012685
:1013A00006FA03F3012D02D19689334006E0022D9F
:1013B00002D1168A334001E0968A33400C1201268E
:1013C00006FA04F41688344013B10CB1012000E091
:1013D000002070BD01468888C0F30800704700BF38
:1013E000FEE700BF7047000010B56FF00400FFF784
:1013F0002DFF104800681049B0FBF1F00F4908704C
:101400000C4800680C49B0FBF1F441F288304443C9
:1014100005200B4908804FF0E020006940F00200F1
:101420004FF0E021086108464461006940F0010086
:10143000086110BD5400002000127A000000002056
:101440000200002070B504460F480078A0B10F4894
:10145000007888B90E480088844206DB0C48008872
:1014600094FBF0F5284600F01DF80948008894FB2D
:10147000F0F100FB114084B24FF47A7104FB01F0EB
:1014800000F016F870BD000032000020250000209A
:101490000200002010B5FFF785F810BD10B5FFF76A
:1014A000A1F810BD10B504462046FFF7C3FA10BDE1
:1014B0002DE9F047074600264FF0E020D0F81490C1
:1014C0001148007807FB00F800BFFFF7E3FF4FF07B
:1014D000E020856911E04FF0E0208469AC420CD037
:1014E000AC4202D2281B064403E0A9EB04002844C6
:1014F00006442546464500D300E0ECE700BFFFF771
:10150000CDFFBDE8F0870000000000200EE02021A4
:101510000748FEF79BFF5020FFF794FF2021044867
:10152000FEF796FF4FF46670FFF78CFFEFE70000C1
:10153000000C01400FE020210748FEF787FF40F62E
:10154000B830FFF77FFF20210348FEF781FF4FF4FB
:101550009670FFF777FFEEE70018014010B54FF4E3
:10156000A060FEF7A3FFFFF73FFFFEF775FFFEF752
:10157000A7FF0A23044A00210448FFF789F8FFF770
:1015800061F8002010BD0000AC0C0020911500088F
:1015900070B50446002500BFFEF738FE0546072358
:1015A000084A00210848FFF773F80623074A00217C
:1015B0000748FFF76DF80A20FFF7E6F92846FEF71F
:1015C00029FE70BDAC0D00200D150008AC0E0020EA
:1015D00035150008000001000200010003000100B1
:1015E00002000100040001000200010003000100EC
:1015F00002000100050001000200010003000100DB
:1016000002000100040001000200010003000100CB
:1016100002000100060001000200010003000100B9
:1016200002000100040001000200010003000100AB
:10163000020001000500010002000100030001009A
:10164000020001000400010002000100030001008B
:101650000200010007000100020001000300010078
:10166000020001000400010002000100030001006B
:10167000020001000500010002000100030001005A
:10168000020001000400010002000100030001004B
:101690000200010006000100020001000300010039
:1016A000020001000400010002000100030001002B
:1016B000020001000500010002000100030001001A
:1016C000020001000400010002000100030001000B
:1016D00002000100F416000800000020680000006D
:1016E0006C0100085C17000868000020A8140000C6
:1016F0008801000800000000000000000000000059
:1017000000000000000000000000000000000000D9
:1017100000000000000000000000000000000000C9
:1017200000000000000000000000000000000000B9
:1017300000000000000000000000000000000000A9
:10174000000000000000000000A24A0400000000A9
:0C17500000000000010203040607080965
:0400000508000131BD
:00000001FF
